:060000000A128A11122809
:10000800FE00030EF2000408F3000A08F40083124D
:1000180003137F08F5000A128A111A280A128A1196
:100028001528F60183010A128A11A8288C1E862831
:100038008C121A08F0007008F60078280A128A1143
:10004800BE200A128A114130F100EE30F000F00BA8
:100058002B28F10B2B2800000A128A11E1200A1222
:100068008A1186280A128A11B4200A128A1141308C
:10007800F100EE30F000F00B3F28F10B3F280000B4
:100088000A128A11E1200A128A1186280A128A1194
:10009800C8200A128A114130F100EE30F000F00B4E
:1000A8005328F10B532800000A128A11E1200A1282
:1000B8008A1186280A128A11D2200A128A1141301E
:1000C800F100EE30F000F00B6728F10B6728000014
:1000D8000A128A11E1200A128A1186280A128A1144
:1000E800E1200A128A1186287608623A03195E28E6
:1000F800043A03194A280A3A031922281E3A03190E
:1001080036287228750883120313FF0074088A00C2
:1001180073088400720E8300FE0E7E0E090083169B
:10012800031398161815831203139817181681309D
:100138008316031399008B170B17831203138C1262
:10014800831603138C1608000A128A1193200A12C8
:100158008A11831603138601831203138601B328B9
:100168000A128A11DC20831203130613861306125F
:10017800861208000A128A11DC2083120313061360
:1001880086130612861208000A128A11DC208312CE
:100198000313061386170612861208000A128A111C
:1001A800DC20831203130617861306128612080032
:1001B800831203130615861508008312031386118C
:0401C8000611080014
:02400E00FA3F77
:00000001FF
